:1000000009C00EC00DC00CC00BC00AC009C008C09A
:1000100007C006C011241FBECFE9CDBF02D064C007
:10002000EFCFCF9387E087BB81E090E049D082306B
:1000300019F461E0C2E002C062E0C1E081E090E05A
:1000400046D0C130B1F188B3876088BB2FE38DE023
:1000500093E0215080409040E1F700C00000C0983C
:100060002FE38DE093E0215080409040E1F700C005
:100070000000C09AC1982FE38DE093E021508040AA
:100080009040E1F700C00000C19A2FE38DE093E0BB
:10009000215080409040E1F700C00000C2982FE35B
:1000A0008DE093E0215080409040E1F700C00000D7
:1000B000CACF88B3876088BB80E090E0CF91089575
:1000C000E199FECF8EBBE09A99278DB30895262F34
:1000D000E199FECF1CBA8EBB2DBB0FB6F894E29A05
:0C00E000E19A0FBE01960895F894FFCF3E
:00000001FF
